{
  "_format": "hh-sol-artifact-1",
  "contractName": "Traceability",
  "sourceName": "contracts/Traceability.sol",
  "abi": [
    {
      "inputs": [],
      "stateMutability": "nonpayable",
      "type": "constructor"
    },
    {
      "inputs": [
        {
          "internalType": "uint256",
          "name": "batchId",
          "type": "uint256"
        }
      ],
      "name": "BatchNotActive",
      "type": "error"
    },
    {
      "inputs": [
        {
          "internalType": "uint256",
          "name": "batchId",
          "type": "uint256"
        }
      ],
      "name": "BatchNotFound",
      "type": "error"
    },
    {
      "inputs": [],
      "name": "EmptyBatchName",
      "type": "error"
    },
    {
      "inputs": [
        {
          "internalType": "enum Traceability.Stage",
          "name": "currentStage",
          "type": "uint8"
        },
        {
          "internalType": "enum Traceability.Stage",
          "name": "newStage",
          "type": "uint8"
        }
      ],
      "name": "InvalidStageProgression",
      "type": "error"
    },
    {
      "inputs": [
        {
          "internalType": "uint256",
          "name": "batchId",
          "type": "uint256"
        },
        {
          "internalType": "address",
          "name": "caller",
          "type": "address"
        }
      ],
      "name": "NotBatchOwner",
      "type": "error"
    },
    {
      "inputs": [
        {
          "internalType": "address",
          "name": "caller",
          "type": "address"
        }
      ],
      "name": "NotSystemAdmin",
      "type": "error"
    },
    {
      "inputs": [
        {
          "internalType": "address",
          "name": "caller",
          "type": "address"
        }
      ],
      "name": "NotWhitelistedProducer",
      "type": "error"
    },
    {
      "anonymous": false,
      "inputs": [
        {
          "indexed": true,
          "internalType": "uint256",
          "name": "batchId",
          "type": "uint256"
        },
        {
          "indexed": false,
          "internalType": "uint256",
          "name": "timestamp",
          "type": "uint256"
        }
      ],
      "name": "BatchCompleted",
      "type": "event"
    },
    {
      "anonymous": false,
      "inputs": [
        {
          "indexed": true,
          "internalType": "uint256",
          "name": "batchId",
          "type": "uint256"
        },
        {
          "indexed": false,
          "internalType": "string",
          "name": "name",
          "type": "string"
        },
        {
          "indexed": false,
          "internalType": "string",
          "name": "origin",
          "type": "string"
        },
        {
          "indexed": true,
          "internalType": "address",
          "name": "owner",
          "type": "address"
        },
        {
          "indexed": false,
          "internalType": "uint256",
          "name": "timestamp",
          "type": "uint256"
        }
      ],
      "name": "BatchCreated",
      "type": "event"
    },
    {
      "anonymous": false,
      "inputs": [
        {
          "indexed": true,
          "internalType": "address",
          "name": "producer",
          "type": "address"
        }
      ],
      "name": "ProducerAdded",
      "type": "event"
    },
    {
      "anonymous": false,
      "inputs": [
        {
          "indexed": true,
          "internalType": "address",
          "name": "producer",
          "type": "address"
        }
      ],
      "name": "ProducerRemoved",
      "type": "event"
    },
    {
      "anonymous": false,
      "inputs": [
        {
          "indexed": true,
          "internalType": "uint256",
          "name": "batchId",
          "type": "uint256"
        },
        {
          "indexed": false,
          "internalType": "enum Traceability.Stage",
          "name": "stage",
          "type": "uint8"
        },
        {
          "indexed": false,
          "internalType": "string",
          "name": "description",
          "type": "string"
        },
        {
          "indexed": false,
          "internalType": "string",
          "name": "imageUrl",
          "type": "string"
        },
        {
          "indexed": false,
          "internalType": "uint256",
          "name": "timestamp",
          "type": "uint256"
        }
      ],
      "name": "StageAdded",
      "type": "event"
    },
    {
      "inputs": [
        {
          "internalType": "uint256",
          "name": "_batchId",
          "type": "uint256"
        },
        {
          "internalType": "enum Traceability.Stage",
          "name": "_stage",
          "type": "uint8"
        },
        {
          "internalType": "string",
          "name": "_description",
          "type": "string"
        },
        {
          "internalType": "string",
          "name": "_imageUrl",
          "type": "string"
        }
      ],
      "name": "addStage",
      "outputs": [],
      "stateMutability": "nonpayable",
      "type": "function"
    },
    {
      "inputs": [
        {
          "internalType": "address",
          "name": "producer",
          "type": "address"
        }
      ],
      "name": "addWhitelistedProducer",
      "outputs": [],
      "stateMutability": "nonpayable",
      "type": "function"
    },
    {
      "inputs": [
        {
          "internalType": "string",
          "name": "_name",
          "type": "string"
        },
        {
          "internalType": "string",
          "name": "_origin",
          "type": "string"
        },
        {
          "internalType": "string",
          "name": "_imageUrl",
          "type": "string"
        }
      ],
      "name": "createBatch",
      "outputs": [
        {
          "internalType": "uint256",
          "name": "batchId",
          "type": "uint256"
        }
      ],
      "stateMutability": "nonpayable",
      "type": "function"
    },
    {
      "inputs": [
        {
          "internalType": "uint256",
          "name": "_batchId",
          "type": "uint256"
        }
      ],
      "name": "getBatch",
      "outputs": [
        {
          "internalType": "uint256",
          "name": "id",
          "type": "uint256"
        },
        {
          "internalType": "string",
          "name": "name",
          "type": "string"
        },
        {
          "internalType": "string",
          "name": "origin",
          "type": "string"
        },
        {
          "internalType": "address",
          "name": "owner",
          "type": "address"
        },
        {
          "internalType": "enum Traceability.Stage",
          "name": "currentStage",
          "type": "uint8"
        },
        {
          "internalType": "uint256",
          "name": "createdAt",
          "type": "uint256"
        },
        {
          "internalType": "bool",
          "name": "isActive",
          "type": "bool"
        },
        {
          "internalType": "uint256",
          "name": "totalStages",
          "type": "uint256"
        }
      ],
      "stateMutability": "view",
      "type": "function"
    },
    {
      "inputs": [
        {
          "internalType": "uint256",
          "name": "_batchId",
          "type": "uint256"
        },
        {
          "internalType": "uint256",
          "name": "_index",
          "type": "uint256"
        }
      ],
      "name": "getStageAt",
      "outputs": [
        {
          "components": [
            {
              "internalType": "enum Traceability.Stage",
              "name": "stage",
              "type": "uint8"
            },
            {
              "internalType": "string",
              "name": "description",
              "type": "string"
            },
            {
              "internalType": "string",
              "name": "imageUrl",
              "type": "string"
            },
            {
              "internalType": "uint256",
              "name": "timestamp",
              "type": "uint256"
            },
            {
              "internalType": "address",
              "name": "updatedBy",
              "type": "address"
            }
          ],
          "internalType": "struct Traceability.StageRecord",
          "name": "record",
          "type": "tuple"
        }
      ],
      "stateMutability": "view",
      "type": "function"
    },
    {
      "inputs": [
        {
          "internalType": "uint256",
          "name": "_batchId",
          "type": "uint256"
        }
      ],
      "name": "getStageHistory",
      "outputs": [
        {
          "components": [
            {
              "internalType": "enum Traceability.Stage",
              "name": "stage",
              "type": "uint8"
            },
            {
              "internalType": "string",
              "name": "description",
              "type": "string"
            },
            {
              "internalType": "string",
              "name": "imageUrl",
              "type": "string"
            },
            {
              "internalType": "uint256",
              "name": "timestamp",
              "type": "uint256"
            },
            {
              "internalType": "address",
              "name": "updatedBy",
              "type": "address"
            }
          ],
          "internalType": "struct Traceability.StageRecord[]",
          "name": "records",
          "type": "tuple[]"
        }
      ],
      "stateMutability": "view",
      "type": "function"
    },
    {
      "inputs": [],
      "name": "getTotalBatches",
      "outputs": [
        {
          "internalType": "uint256",
          "name": "",
          "type": "uint256"
        }
      ],
      "stateMutability": "view",
      "type": "function"
    },
    {
      "inputs": [
        {
          "internalType": "address",
          "name": "",
          "type": "address"
        }
      ],
      "name": "isWhitelistedProducer",
      "outputs": [
        {
          "internalType": "bool",
          "name": "",
          "type": "bool"
        }
      ],
      "stateMutability": "view",
      "type": "function"
    },
    {
      "inputs": [
        {
          "internalType": "address",
          "name": "producer",
          "type": "address"
        }
      ],
      "name": "removeWhitelistedProducer",
      "outputs": [],
      "stateMutability": "nonpayable",
      "type": "function"
    },
    {
      "inputs": [],
      "name": "systemAdmin",
      "outputs": [
        {
          "internalType": "address",
          "name": "",
          "type": "address"
        }
      ],
      "stateMutability": "view",
      "type": "function"
    }
  ],
  "bytecode": "0x6080806040523461006857600380546001600160a01b031916339081179091556000818152600460205260408120805460ff191660011790557f2977383b0207d39ef14220620b6cf3e6c9b6e78592af90baeef6614ed2fcd2c69080a2611275908161006e8239f35b600080fdfe608080604052600436101561001357600080fd5b60003560e01c9081632a727af114610a17575080635ac4428214610941578063654ed714146108fe57806383c5783514610890578063a239e33d14610867578063a6cfb6c91461034d578063b49f979914610232578063b9939d2714610139578063e12c7e8c146100b05763e561dddc1461008d57600080fd5b346100ab5760003660031901126100ab576020600054604051908152f35b600080fd5b346100ab5760203660031901126100ab576004356001600160a01b03818116918290036100ab57600354163303610121578060005260046020526040600020600160ff198254161790557f2977383b0207d39ef14220620b6cf3e6c9b6e78592af90baeef6614ed2fcd2c6600080a2005b6040516327152f0360e11b8152336004820152602490fd5b346100ab5760403660031901126100ab5760405160243560043561015c83610d6a565b600083526000608060209460608682015260606040820152826060820152015280600052600183526004604060002001541561021a5780600052600283526040600020548210156101df576101c6916101c091600052600284526040600020610df8565b506111e2565b906101db604051928284938452830190610ced565b0390f35b60405162461bcd60e51b8152600481018490526013602482015272496e646578206f7574206f6620626f756e647360681b6044820152606490fd5b60249060405190639de3becd60e01b82526004820152fd5b346100ab576020806003193601126100ab576004359081600052600191600182526004604060002001541561021a5760005260028152604060002080546001600160401b03811161033757838360059260405193610295838360051b0186610d85565b8185528285018096600052836000206000915b848310610311575050505050604051928184019082855251809152604084019160408260051b86010195926000905b8382106102e45786880387f35b90919293948380610300839a603f198b82030186528951610ced565b9997019594939190910191016102d7565b958386829a98610323859b999b6111e2565b8152019201920191909795979694966102a8565b634e487b7160e01b600052604160045260246000fd5b346100ab5760603660031901126100ab576004356001600160401b0381116100ab5761037d903690600401610c73565b6024356001600160401b0381116100ab5761039c903690600401610c73565b6044929192356001600160401b0381116100ab576103be903690600401610c73565b93909133600052600460205260ff604060002054161561084f57831561083d5760005494600019861461082757600186016000556040518060e08101106001600160401b0360e0830111176103375760e0810160405260018701815261042536878a610db2565b60208201908152610437368587610db2565b6040830152336060830152600060808301524260a0830152600160c083015260018801600052600160205260406000209082518255518051906001600160401b03821161033757819061048d6001850154610e2a565b601f81116107d4575b50602090601f83116001146107675760009261075c575b50508160011b916000199060031b1c19161760018201555b60408201518051906001600160401b0382116103375781906104ea6002850154610e2a565b601f8111610709575b50602090601f831160011461069c57600092610691575b50508160011b916000199060031b1c19161760028201555b600381019060018060a01b036060840151166bffffffffffffffffffffffff60a01b835416178255608083015190600782101561067b5761056760059260c094610d46565b60a0840151600482015501910151151560ff801983541691161790556001860160005260026020526040600020966040516105a181610d6a565b60008152604051906040820199828b106001600160401b038c11176103375761060961063e986106319661061f9560209e604052601d81527f42617463682063726561746564202d2053656564696e672073746167650000008f8201528e8601523691610db2565b6040830152426060830152336080830152610e64565b6040519560608752606087019161111c565b918483038786015261111c565b4260408301527f92b6020e18f2d7328b8bc9a6af7c2c05fd727f42a7e7e48cf5df3cd5bbe19ae533928060018601930390a3600160405191018152f35b634e487b7160e01b600052602160045260246000fd5b015190508b8061050a565b600285016000908152602081209350601f198516905b8181106106f157509084600195949392106106d8575b505050811b016002820155610522565b015160001960f88460031b161c191690558b80806106c8565b929360206001819287860151815501950193016106b2565b909150600284016000526020600020601f840160051c810160208510610755575b90849392915b601f830160051c820181106107465750506104f3565b60008155859450600101610730565b508061072a565b015190508b806104ad565b600185016000908152602081209350601f198516905b8181106107bc57509084600195949392106107a3575b505050811b0160018201556104c5565b015160001960f88460031b161c191690558b8080610793565b9293602060018192878601518155019501930161077d565b909150600184016000526020600020601f840160051c810160208510610820575b90849392915b601f830160051c82018110610811575050610496565b600081558594506001016107fb565b50806107f5565b634e487b7160e01b600052601160045260246000fd5b6040516356965f4b60e11b8152600490fd5b60405163e84983ab60e01b8152336004820152602490fd5b346100ab5760003660031901126100ab576003546040516001600160a01b039091168152602090f35b346100ab5760203660031901126100ab576004356001600160a01b03818116918290036100ab5760035416330361012157806000526004602052604060002060ff1981541690557fb78e9906c5bae930ccf756a5214c9855b1782f0eb30f9566de2384f034af48f3600080a2005b346100ab5760203660031901126100ab576004356001600160a01b038116908190036100ab576000526004602052602060ff604060002054166040519015158152f35b346100ab5760203660031901126100ab576004358060005260016020526004604060002001541561021a576000526001602052604060002080546003820154600483015460ff600585015416600260205260406000205491610a026109e26109b760026109b060018b0161113d565b990161113d565b6109d4604051998a99610100908b528060208c01528a0190610ca0565b9088820360408a0152610ca0565b6001600160a01b038616606088015294608087019060a01c60ff16610ce0565b60a0850152151560c084015260e08301520390f35b346100ab5760803660031901126100ab5760043590602490813560078110156100ab576001600160401b036044358181116100ab57610a5a903690600401610c73565b90916064359081116100ab57610a74903690600401610c73565b876000526020956001875260046040600020015415610c5e575060008881526001875260409020600301546001600160a01b03163303610c4057876000526001865260ff6005604060002001541615610c28578760005260018652604060002096600388019060ff825460a01c16906007821015610c14578160ff89161115610be757505092610ba17f3cc27d99c115acc11025b62ac721231d8d81fefc7c5975a5d1af6c29f83819b793879693610b2f6006998d98610d46565b8660005260028a52610b70604060002060405190610b4c82610d6a565b610b568b83610da6565b610b6136888a610db2565b8d830152610609368587610db2565b610b93604051958695610b83878c610ce0565b60808d880152608087019161111c565b91848303604086015261111c565b4260608301520390a214610bb157005b60057fdf423376f9b0ab363b1b4d6f0b4cb6821921ec30f491555a97236a8a38ce095a920160ff198154169055604051428152a2005b90610c1288604493610c0a604051946352f673dd60e01b86526004860190610ce0565b830190610ce0565bfd5b634e487b7160e01b60009081526021600452fd5b604051637ff26de960e01b8152600481018990528790fd5b604051633eab10ad60e21b8152600481018990523381890152604490fd5b639de3becd60e01b8152600481018990528790fd5b9181601f840112156100ab578235916001600160401b0383116100ab57602083818601950101116100ab57565b919082519283825260005b848110610ccc575050826000602080949584010152601f8019910116010190565b602081830181015184830182015201610cab565b90600782101561067b5752565b90610cf9818351610ce0565b6080610d29610d17602085015160a0602086015260a0850190610ca0565b60408501518482036040860152610ca0565b60608085015190840152928101516001600160a01b031691015290565b90600781101561067b57815460ff60a01b191660a09190911b60ff60a01b16179055565b60a081019081106001600160401b0382111761033757604052565b90601f801991011681019081106001600160401b0382111761033757604052565b600782101561067b5752565b9291926001600160401b0382116103375760405191610ddb601f8201601f191660200184610d85565b8294818452818301116100ab578281602093846000960137010152565b8054821015610e14576000526005602060002091020190600090565b634e487b7160e01b600052603260045260246000fd5b90600182811c92168015610e5a575b6020831014610e4457565b634e487b7160e01b600052602260045260246000fd5b91607f1691610e39565b919082546801000000000000000081101561033757610e8a906001948582018155610df8565b611106578151600781101561067b5760ff8019835416911617815583810193602090818401518051966001600160401b03978881116103375780610ece8354610e2a565b93601f948581116110b2575b50869085831160011461104f57600092611044575b5050600019600383901b1c191690841b1790555b6002840192604086015190815198891161033757610f218554610e2a565b838111610ffe575b5080928911600114610f96575096809281926004979899600094610f8b575b50501b916000199060031b1c19161790555b606083015160038201550190608060018060a01b03910151166bffffffffffffffffffffffff60a01b825416179055565b015192503880610f48565b909791601f198316988560005282600020926000905b8b8210610fe757505083600498999a10610fce575b505050811b019055610f5a565b015160001960f88460031b161c19169055388080610fc1565b808785968294968601518155019501930190610fac565b856000528160002084808c0160051c820192848d1061103b575b0160051c019085905b82811061102f575050610f29565b60008155018590611021565b92508192611018565b015190503880610eef565b90869350601f1983169185600052886000209260005b8a82821061109c5750508411611083575b505050811b019055610f03565b015160001960f88460031b161c19169055388080611076565b8385015186558a97909501949384019301611065565b909150600084600052876000208680860160051c8201938a87106110fd575b91899187969594930160051c01925b8381106110ef57505050610eda565b8281558695508991016110e0565b935081936110d1565b634e487b7160e01b600052600060045260246000fd5b908060209392818452848401376000828201840152601f01601f1916010190565b9060405191826000825461115081610e2a565b908184526020946001916001811690816000146111c05750600114611181575b50505061117f92500383610d85565b565b600090815285812095935091905b8183106111a857505061117f9350820101388080611170565b8554888401850152948501948794509183019161118f565b9250505061117f94925060ff191682840152151560051b820101388080611170565b906040516111ef81610d6a565b6080819361120160ff82541684610da6565b61120d6001820161113d565b602084015261121e6002820161113d565b604084015260038101546060840152600401546001600160a01b031691015256fea2646970667358221220d7d1cc618de8def98c7a594d9b0cf29c1d3460be810ff2c9ef693a10e9a537e264736f6c63430008180033",
  "linkReferences": {},
  "deployedLinkReferences": {}
}